:100000000C9457000C9476000C9476000C947600B7
:100010000C9476000C9476000C9476000C94760088
:100020000C9476000C9476000C9476000C94760078
:100030000C9476000C94EF000C9476000C947600EF
:100040000C9476000C9476000C9476000C94760058
:100050000C9476000C9476000C9476000C94760048
:100060000C9476000C9476000C9476000C94760038
:100070000C9476000C9476000C9476000C94760028
:100080000C9476000C9476000C947600A701AE01D7
:10009000BF01E101D001F201FC01060210023B02A6
:1000A0004102410247023B02410241024702112440
:1000B0001FBECFEFD0E4DEBFCDBF11E0A0E0B1E0C6
:1000C000ECE1F5E000E00BBF02C007900D92A23119
:1000D000B107D9F721E0A2E1B1E001C01D92A93139
:1000E000B207E1F70E9457020C948C020C940000B6
:1000F000CF93DF9300D01F92CDB7DEB789837B8388
:100100006A8389818A3031F48A819B81BC018DE0C8
:100110000E94780080EC90E0FC018081882F90E0C4
:1001200080729927892BB1F386EC90E02981FC013C
:10013000208380E090E00F900F900F90DF91CF919F
:100140000895CF93DF93CDB7DEB781E890E02BE041
:10015000FC01208388E890E02DE730E0FC0131834A
:1001600020838FE690E022E0FC01208384E890E089
:10017000FC011182108280910E0190910F01A091DB
:100180001001B09111018093130190931401A09379
:100190001501B09316018FE590E02FE530E0F901ED
:1001A00020812068FC0120830000DF91CF91089519
:1001B000CF93DF93CDB7DEB781E890E0FC011082EA
:1001C0000000DF91CF910895CF93DF93CDB7DEB7D5
:1001D00081E0809312010000DF91CF9108951F927A
:1001E0000F9200905F000F92112400905B000F921D
:1001F0002F933F934F935F936F937F938F939F932F
:10020000AF93BF93EF93FF93CF93DF93CDB7DEB759
:100210008091130190911401A0911501B0911601E4
:100220000197A109B1098093130190931401A09340
:100230001501B09316018091130190911401A091C2
:100240001501B0911601892B8A2B8B2B91F40E94FA
:10025000E40080910E0190910F01A0911001B091E6
:1002600011018093130190931401A0931501B09391
:1002700016010000DF91CF91FF91EF91BF91AF91F7
:100280009F918F917F916F915F914F913F912F91AE
:100290000F9000925B000F9000925F000F901F90F4
:1002A0001895CF93DF9300D000D0CDB7DEB7698328
:1002B0007A838B839C8389819A81AB81BC81809373
:1002C0000E0190930F01A0931001B0931101809142
:1002D0000E0190910F01A0911001B0911101809336
:1002E000130190931401A0931501B093160100001F
:1002F0000F900F900F900F90DF91CF910895CF93B3
:10030000DF931F92CDB7DEB780E290E0FC018081E1
:10031000882F90E08170992721E0892B09F020E057
:1003200029838091170190911801CC01A0E0B0E0E1
:1003300040E050E028E030E0841B950B2817390797
:1003400008F478C08A5B9F4FFC010C94830281E023
:1003500090E0909318018093170178C089818823D9
:1003600039F085E090E090931801809317016EC0FA
:1003700082E090E0909318018093170167C0898113
:10038000882339F086E090E090931801809317015C
:100390005DC084E090E0909318018093170156C0EF
:1003A0008981882339F088E090E090931801809348
:1003B00017014CC083E090E09093180180931701DF
:1003C00045C08981882339F087E090E09093180137
:1003D000809317013BC081E090E0909318018093D7
:1003E000170134C08981882351F582E090E0909311
:1003F00018018093170123C08981882311F584E0B7
:1004000090E090931801809317011BC08981882385
:10041000D1F481E090E0909318018093170113C00C
:100420008981882391F483E090E090931801809370
:1004300017010BC0109218011092170107C000009D
:1004400005C0000003C0000001C00000809117013A
:1004500090911801CC01A0E0B0E041E050E027E02D
:1004600030E0841B950B28173907B8F0815B9F4F4C
:10047000FC010C94830285E290E021E0FC012083E2
:1004800011C085E290E022E0FC0120830BC085E2F0
:1004900090E024E0FC01208305C085E290E0FC01AF
:1004A0001082000000000F90DF91CF910895CF934C
:1004B000DF93CDB7DEB781E290E0FC01108282E2EB
:1004C00090E02FEFFC01208384E290E02FEFFC010D
:1004D000208385E290E0FC01108268EB7BE080E005
:1004E00090E00E9451010E94A10085E290E0FC0191
:1004F00010820E947F010000809112018823E1F3A5
:1005000010921201F6CFEE0FFF1F0024001C0BBE4D
:0C0510000790F691E02D0994F894FFCFBD
:10051C000000000200000000780000000000010054
:02052C000000CD
:00000001FF
