:100000000C9458000C9477000C9477000C947700B3
:100010000C9477000C9477000C9477000C94770084
:100020000C9477000C9477000C9477000C94770074
:100030000C9477000C94F0000C9477000C947700EB
:100040000C9477000C9477000C9477000C94770054
:100050000C9477000C9477000C9477000C94770044
:100060000C9477000C9477000C9477000C94770034
:100070000C9477000C9477000C9477000C94770024
:100080000C9477000C9477000C947700A801AF01D2
:10009000C001E201D101F30104021502260251025E
:1000A0005102570257025D025102570257025D0288
:1000B00011241FBECFEFD0E4DEBFCDBF11E0A0E022
:1000C000B1E0E8E4F5E000E00BBF02C007900D925C
:1000D000A231B107D9F721E0A2E1B1E001C01D9240
:1000E000A931B207E1F70E946D020C94A2020C94B0
:1000F0000000CF93DF9300D01F92CDB7DEB7898386
:100100007B836A8389818A3031F48A819B81BC0137
:100110008DE00E94790080EC90E0FC018081882FC6
:1001200090E080729927892BB1F386EC90E02981C9
:10013000FC01208380E090E00F900F900F90DF9102
:10014000CF910895CF93DF93CDB7DEB781E890E0EC
:100150002BE0FC01208388E890E02DE730E0FC01F3
:10016000318320838FE690E022E0FC01208384E845
:1001700090E0FC011182108280910E0190910F019C
:10018000A0911001B091110180931301909314017B
:10019000A0931501B09316018FE590E02FE530E0B4
:1001A000F90120812068FC0120830000DF91CF91BC
:1001B0000895CF93DF93CDB7DEB781E890E0FC01DF
:1001C00010820000DF91CF910895CF93DF93CDB7D8
:1001D000DEB781E0809312010000DF91CF91089596
:1001E0001F920F9200905F000F92112400905B000D
:1001F0000F922F933F934F935F936F937F938F93C0
:100200009F93AF93BF93EF93FF93CF93DF93CDB7BC
:10021000DEB78091130190911401A0911501B09166
:1002200016010197A109B10980931301909314015C
:10023000A0931501B09316018091130190911401C0
:10024000A0911501B0911601892B8A2B8B2B91F46B
:100250000E94E50080910E0190910F01A091100184
:10026000B09111018093130190931401A093150193
:10027000B09316010000DF91CF91FF91EF91BF91F4
:10028000AF919F918F917F916F915F914F913F912E
:100290002F910F9000925B000F9000925F000F90E3
:1002A0001F901895CF93DF9300D000D0CDB7DEB765
:1002B00069837A838B839C8389819A81AB81BC819A
:1002C00080930E0190930F01A0931001B093110140
:1002D00080910E0190910F01A0911001B091110138
:1002E0008093130190931401A0931501B09316010C
:1002F00000000F900F900F900F90DF91CF91089515
:10030000CF93DF931F92CDB7DEB780E290E0FC0180
:100310008081882F90E08170992721E0892B09F056
:1003200020E029838091170190911801CC01A0E071
:10033000B0E040E050E028E030E0841B950B281747
:10034000390708F494C08A5B9F4FFC010C94990212
:1003500081E090E090931801809317018DC089810E
:10036000882339F085E090E090931801809317017D
:1003700083C082E090E090931801809317017CC0C5
:100380008981882339F086E090E09093180180936A
:10039000170172C084E090E09093180180931701D8
:1003A0006BC08981882339F088E090E09093180130
:1003B0008093170161C083E090E0909318018093CF
:1003C00017015AC08981882339F087E090E0909323
:1003D00018018093170150C081E090E090931801BC
:1003E0008093170149C08981882339F082E090E029
:1003F00090931801809317013FC085E090E090939F
:1004000018018093170138C08981882339F084E06E
:1004100090E090931801809317012EC086E090E041
:10042000909318018093170127C08981882339F0A0
:1004300081E090E090931801809317011DC087E040
:1004400090E0909318018093170116C0898188234A
:1004500039F083E090E090931801809317010CC06D
:1004600088E090E0909318018093170105C01092E6
:100470001801109217010000809117019091180146
:10048000CC01A0E0B0E040E050E028E030E0841B88
:10049000950B28173907B8F0815B9F4FFC010C942E
:1004A000990285E290E021E0FC01208311C085E201
:1004B00090E022E0FC0120830BC085E290E024E084
:1004C000FC01208305C085E290E0FC011082000061
:1004D00000000F90DF91CF910895CF93DF93CDB7B8
:1004E000DEB781E290E0FC01108282E290E02FEF23
:1004F000FC01208384E290E02FEFFC01208385E261
:1005000090E0FC0110826CE271E080E090E00E94DB
:1005100052010E94A20085E290E0FC0110820E943C
:1005200080010000809112018823E1F310921201F2
:10053000F6CFEE0FFF1F0024001C0BBE0790F691B4
:08054000E02D0994F894FFCFAF
:100548000000000200000000790000000000010027
:020558000000A1
:00000001FF
