:100000000C9454000C9473000C9473000C947300C3
:100010000C9473000C9473000C9473000C94730094
:100020000C9473000C9473000C9473000C94730084
:100030000C9473000C94EC000C9473000C947300FB
:100040000C9473000C9473000C9473000C94730064
:100050000C9473000C9473000C9473000C94730054
:100060000C9473000C9473000C9473000C94730044
:100070000C9473000C9473000C9473000C94730034
:100080000C9473000C9473000C947300AB01C601C4
:10009000DB01E901E2011A02130262029302880203
:1000A000930268029302780211241FBECFEFD0E4BE
:1000B000DEBFCDBF11E0A0E0B1E0ECEAF5E000E08A
:1000C0000BBF02C007900D92A231B107D9F721E012
:1000D000A2E1B1E001C01D92AA31B207E1F70E948E
:1000E0009E020C94D4020C940000CF93DF9300D0B6
:1000F0001F92CDB7DEB789837B836A8389818A307B
:1001000031F48A819B81BC018DE00E94750080ECF6
:1001100090E0FC018081882F90E080729927892BE4
:10012000B1F386EC90E02981FC01208380E090E02F
:100130000F900F900F90DF91CF910895CF93DF93A1
:10014000CDB7DEB781E890E02BE0FC01208388E8A2
:1001500090E02DE730E0FC01318320838FE690E0D2
:1001600022E0FC01208384E890E0FC0111821082EF
:1001700080910E0190910F01A0911001B091110199
:100180008093130190931401A0931501B09316016D
:100190008FE590E02FE530E0F90120812068FC0137
:1001A00020830000DF91CF910895CF93DF93CDB7E7
:1001B000DEB781E890E0FC0110820000DF91CF9172
:1001C0000895CF93DF93CDB7DEB781E0809312011E
:1001D0000000DF91CF9108951F920F9200905F0071
:1001E0000F92112400905B000F922F933F934F9337
:1001F0005F936F937F938F939F93AF93BF93EF938F
:10020000FF93CF93DF93CDB7DEB780911301909129
:100210001401A0911501B09116010197A109B1092E
:100220008093130190931401A0931501B0931601CC
:100230008091130190911401A0911501B0911601C4
:10024000892B8A2B8B2B91F40E94E10080910E0167
:1002500090910F01A0911001B091110180931301B1
:1002600090931401A0931501B09316010000DF9143
:10027000CF91FF91EF91BF91AF919F918F917F911E
:100280006F915F914F913F912F910F9000925B0082
:100290000F9000925F000F901F901895CF93DF93FF
:1002A00000D000D0CDB7DEB769837A838B839C837F
:1002B00089819A81AB81BC8180930E0190930F015B
:1002C000A0931001B093110180910E0190910F0144
:1002D000A0911001B091110180931301909314012A
:1002E000A0931501B093160100000F900F900F908E
:1002F0000F90DF91CF910895CF93DF9300D0CDB7CA
:10030000DEB780E290E0FC018081882F90E0817070
:10031000992721E0892B09F020E0298380E290E0F1
:10032000FC018081809582708A8380911801909170
:100330001901CC01A0E0B0E040E050E026E030E060
:10034000841B950B2817390708F49DC08A5B9F4FC3
:10035000FC010C94CB028981882339F084E090E081
:10036000909319018093180198C08A81882339F0ED
:1003700086E090E090931901809318018EC081E08F
:1003800090E0909319018093180187C08981882398
:1003900039F084E090E0909319018093180178C0BF
:1003A0008A81882309F474C086E090E09093190153
:1003B000809318016DC081E090E0909319018093C3
:1003C00018016BC083E090E09093190180931801AD
:1003D00064C08A81882339F082E090E0909319010B
:1003E0008093180157C08981882391F0809117016B
:1003F0008A3040F01092170184E090E09093190148
:1004000080931801809117018F5F8093170142C07C
:100410008981882309F03EC081E090E09093190122
:100420008093180137C085E090E090931901809384
:10043000180133C08981882339F082E090E09093DD
:1004400019018093180128C08A81882391F0809136
:1004500017018A3040F01092170186E090E09093E7
:10046000190180931801809117018F5F8093170104
:1004700013C08A81882381F481E090E09093190170
:100480008093180109C0109219011092180105C03B
:10049000000003C0000001C000008091180190918D
:1004A0001901CC01A0E0B0E040E050E026E030E0EF
:1004B000841B950B2817390780F1835B9F4FFC0144
:1004C0000C94CB0285E290E027E0FC01208330C051
:1004D00085E290E0FC018081893038F585E290E08A
:1004E00025E230E0F90120812F5FFC0120831DC04F
:1004F00085E290E0FC0180818823C9F085E290E0EC
:1005000025E230E0F90120812150FC01208310C058
:1005100085E290E0FC0110820BC088E290E027E0C9
:10052000FC01208305C0000003C0000001C00000E2
:1005300000000F900F90DF91CF910895CF93DF933C
:10054000CDB7DEB781E290E0FC01108282E290E05C
:100550002FEFFC01208384E290E02FEFFC01208349
:1005600085E290E0FC01108264E670E080E090E0BB
:100570000E944E010E949E0085E290E027E0FC016F
:1005800020830E947C010000809112018823E1F306
:1005900010921201F6CFEE0FFF1F0024001C0BBEBD
:0C05A0000790F691E02D0994F894FFCF2D
:1005AC0000000002000000007500000000000100C7
:0205BC0000003D
:00000001FF
